{
  "contractName": "Marketplace",
  "abi": [
    {
      "inputs": [],
      "stateMutability": "nonpayable",
      "type": "constructor"
    },
    {
      "anonymous": false,
      "inputs": [
        {
          "indexed": false,
          "internalType": "uint256",
          "name": "id",
          "type": "uint256"
        },
        {
          "indexed": false,
          "internalType": "string",
          "name": "name",
          "type": "string"
        },
        {
          "indexed": false,
          "internalType": "uint256",
          "name": "price",
          "type": "uint256"
        },
        {
          "indexed": false,
          "internalType": "address",
          "name": "owner",
          "type": "address"
        },
        {
          "indexed": false,
          "internalType": "bool",
          "name": "purchased",
          "type": "bool"
        }
      ],
      "name": "ProductCreated",
      "type": "event"
    },
    {
      "anonymous": false,
      "inputs": [
        {
          "indexed": false,
          "internalType": "uint256",
          "name": "id",
          "type": "uint256"
        },
        {
          "indexed": false,
          "internalType": "string",
          "name": "name",
          "type": "string"
        },
        {
          "indexed": false,
          "internalType": "uint256",
          "name": "price",
          "type": "uint256"
        },
        {
          "indexed": false,
          "internalType": "address",
          "name": "owner",
          "type": "address"
        },
        {
          "indexed": false,
          "internalType": "bool",
          "name": "purchased",
          "type": "bool"
        }
      ],
      "name": "ProductPurchased",
      "type": "event"
    },
    {
      "inputs": [],
      "name": "id",
      "outputs": [
        {
          "internalType": "uint256",
          "name": "",
          "type": "uint256"
        }
      ],
      "stateMutability": "view",
      "type": "function",
      "constant": true
    },
    {
      "inputs": [],
      "name": "name",
      "outputs": [
        {
          "internalType": "string",
          "name": "",
          "type": "string"
        }
      ],
      "stateMutability": "view",
      "type": "function",
      "constant": true
    },
    {
      "inputs": [
        {
          "internalType": "uint256",
          "name": "",
          "type": "uint256"
        }
      ],
      "name": "products",
      "outputs": [
        {
          "internalType": "uint256",
          "name": "id",
          "type": "uint256"
        },
        {
          "internalType": "string",
          "name": "name",
          "type": "string"
        },
        {
          "internalType": "uint256",
          "name": "price",
          "type": "uint256"
        },
        {
          "internalType": "address",
          "name": "owner",
          "type": "address"
        },
        {
          "internalType": "bool",
          "name": "purchased",
          "type": "bool"
        }
      ],
      "stateMutability": "view",
      "type": "function",
      "constant": true
    },
    {
      "inputs": [
        {
          "internalType": "string",
          "name": "_name",
          "type": "string"
        },
        {
          "internalType": "uint256",
          "name": "_price",
          "type": "uint256"
        }
      ],
      "name": "createProduct",
      "outputs": [],
      "stateMutability": "nonpayable",
      "type": "function"
    },
    {
      "inputs": [
        {
          "internalType": "uint256",
          "name": "_id",
          "type": "uint256"
        }
      ],
      "name": "purchaseProduct",
      "outputs": [],
      "stateMutability": "payable",
      "type": "function",
      "payable": true
    }
  ],
  "bytecode": "0x608060405260006001553480156200001657600080fd5b506040518060400160405280601481526020017f45786f7469717565204d61726b6574706c61636500000000000000000000000081525060009080519060200190620000649291906200006b565b5062000180565b82805462000079906200014a565b90600052602060002090601f0160209004810192826200009d5760008555620000e9565b82601f10620000b857805160ff1916838001178555620000e9565b82800160010185558215620000e9579182015b82811115620000e8578251825591602001919060010190620000cb565b5b509050620000f89190620000fc565b5090565b5b8082111562000117576000816000905550600101620000fd565b5090565b7f4e487b7100000000000000000000000000000000000000000000000000000000600052602260045260246000fd5b600060028204905060018216806200016357607f821691505b602082108114156200017a57620001796200011b565b5b50919050565b610c4780620001906000396000f3fe60806040526004361061004a5760003560e01c806306fdde031461004f57806338e76a031461007a5780637acc0b2014610096578063af640d0f146100d7578063e9300c6c14610102575b600080fd5b34801561005b57600080fd5b5061006461012b565b604051610071919061082e565b60405180910390f35b610094600480360381019061008f919061089a565b6101b9565b005b3480156100a257600080fd5b506100bd60048036038101906100b8919061089a565b610496565b6040516100ce959493929190610932565b60405180910390f35b3480156100e357600080fd5b506100ec610581565b6040516100f9919061098c565b60405180910390f35b34801561010e57600080fd5b5061012960048036038101906101249190610adc565b610587565b005b6000805461013890610b67565b80601f016020809104026020016040519081016040528092919081815260200182805461016490610b67565b80156101b15780601f10610186576101008083540402835291602001916101b1565b820191906000526020600020905b81548152906001019060200180831161019457829003601f168201915b505050505081565b6000600260008381526020019081526020016000206040518060a0016040529081600082015481526020016001820180546101f390610b67565b80601f016020809104026020016040519081016040528092919081815260200182805461021f90610b67565b801561026c5780601f106102415761010080835404028352916020019161026c565b820191906000526020600020905b81548152906001019060200180831161024f57829003601f168201915b50505050508152602001600282015481526020016003820160009054906101000a900473ffffffffffffffffffffffffffffffffffffffff1673ffffffffffffffffffffffffffffffffffffffff1673ffffffffffffffffffffffffffffffffffffffff1681526020016003820160149054906101000a900460ff16151515158152505090506000816060015190506000831161030857600080fd5b33826060019073ffffffffffffffffffffffffffffffffffffffff16908173ffffffffffffffffffffffffffffffffffffffff16815250506001826080019015159081151581525050816002600085815260200190815260200160002060008201518160000155602082015181600101908051906020019061038b9291906106f2565b506040820151816002015560608201518160030160006101000a81548173ffffffffffffffffffffffffffffffffffffffff021916908373ffffffffffffffffffffffffffffffffffffffff16021790555060808201518160030160146101000a81548160ff0219169083151502179055509050508073ffffffffffffffffffffffffffffffffffffffff166108fc349081150290604051600060405180830381858888f19350505050158015610446573d6000803e3d6000fd5b507f79558d0d7d4d900e2f15c4cc0a665f1acdbe415e44de900ecdd1e5bf12b56f4e60015483602001518460400151336001604051610489959493929190610932565b60405180910390a1505050565b60026020528060005260406000206000915090508060000154908060010180546104bf90610b67565b80601f01602080910402602001604051908101604052809291908181526020018280546104eb90610b67565b80156105385780601f1061050d57610100808354040283529160200191610538565b820191906000526020600020905b81548152906001019060200180831161051b57829003601f168201915b5050505050908060020154908060030160009054906101000a900473ffffffffffffffffffffffffffffffffffffffff16908060030160149054906101000a900460ff16905085565b60015481565b600082511161059557600080fd5b600081116105a257600080fd5b600160008154809291906105b590610bc8565b91905055506040518060a0016040528060015481526020018381526020018281526020013373ffffffffffffffffffffffffffffffffffffffff168152602001600015158152506002600060015481526020019081526020016000206000820151816000015560208201518160010190805190602001906106379291906106f2565b506040820151816002015560608201518160030160006101000a81548173ffffffffffffffffffffffffffffffffffffffff021916908373ffffffffffffffffffffffffffffffffffffffff16021790555060808201518160030160146101000a81548160ff0219169083151502179055509050507fbc59c0c8165864dcceb377dd07d8f431d4303f8e501cb0a0374a10cc68d7183660015483833360006040516106e6959493929190610932565b60405180910390a15050565b8280546106fe90610b67565b90600052602060002090601f0160209004810192826107205760008555610767565b82601f1061073957805160ff1916838001178555610767565b82800160010185558215610767579182015b8281111561076657825182559160200191906001019061074b565b5b5090506107749190610778565b5090565b5b80821115610791576000816000905550600101610779565b5090565b600081519050919050565b600082825260208201905092915050565b60005b838110156107cf5780820151818401526020810190506107b4565b838111156107de576000848401525b50505050565b6000601f19601f8301169050919050565b600061080082610795565b61080a81856107a0565b935061081a8185602086016107b1565b610823816107e4565b840191505092915050565b6000602082019050818103600083015261084881846107f5565b905092915050565b6000604051905090565b600080fd5b600080fd5b6000819050919050565b61087781610864565b811461088257600080fd5b50565b6000813590506108948161086e565b92915050565b6000602082840312156108b0576108af61085a565b5b60006108be84828501610885565b91505092915050565b6108d081610864565b82525050565b600073ffffffffffffffffffffffffffffffffffffffff82169050919050565b6000610901826108d6565b9050919050565b610911816108f6565b82525050565b60008115159050919050565b61092c81610917565b82525050565b600060a08201905061094760008301886108c7565b818103602083015261095981876107f5565b905061096860408301866108c7565b6109756060830185610908565b6109826080830184610923565b9695505050505050565b60006020820190506109a160008301846108c7565b92915050565b600080fd5b600080fd5b7f4e487b7100000000000000000000000000000000000000000000000000000000600052604160045260246000fd5b6109e9826107e4565b810181811067ffffffffffffffff82111715610a0857610a076109b1565b5b80604052505050565b6000610a1b610850565b9050610a2782826109e0565b919050565b600067ffffffffffffffff821115610a4757610a466109b1565b5b610a50826107e4565b9050602081019050919050565b82818337600083830152505050565b6000610a7f610a7a84610a2c565b610a11565b905082815260208101848484011115610a9b57610a9a6109ac565b5b610aa6848285610a5d565b509392505050565b600082601f830112610ac357610ac26109a7565b5b8135610ad3848260208601610a6c565b91505092915050565b60008060408385031215610af357610af261085a565b5b600083013567ffffffffffffffff811115610b1157610b1061085f565b5b610b1d85828601610aae565b9250506020610b2e85828601610885565b9150509250929050565b7f4e487b7100000000000000000000000000000000000000000000000000000000600052602260045260246000fd5b60006002820490506001821680610b7f57607f821691505b60208210811415610b9357610b92610b38565b5b50919050565b7f4e487b7100000000000000000000000000000000000000000000000000000000600052601160045260246000fd5b6000610bd382610864565b91507fffffffffffffffffffffffffffffffffffffffffffffffffffffffffffffffff821415610c0657610c05610b99565b5b60018201905091905056fea26469706673582212200d8cc6b3c85a34f7fbdf10df8b636e11df4c321031a8dd4ee9621e681e1d53bf64736f6c634300080b0033",
  "immutableReferences": {},
  "source": "// SPDX-License-Identifier: MIT\npragma solidity ^0.8.0;\n\ncontract Marketplace {\n    // State variables\n    string public name;\n    uint public id = 0; \n\n    // Equivalent to database\n    struct Product {\n        uint id;\n        string name;\n        uint price;\n        address owner;\n        bool purchased;\n    }\n\n    // Similar to declaring PK for adding data\n    mapping(uint => Product) public products;\n\n    // Emit event when a product is created\n    event ProductCreated(\n        uint id,\n        string name,\n        uint price,\n        address owner,\n        bool purchased\n    );\n\n    // Emit event when a product is purchased\n    event ProductPurchased(\n        uint id,\n        string name,\n        uint price,\n        address owner,\n        bool purchased\n    );\n\n    constructor() {\n        name = \"Exotique Marketplace\";\n    }\n\n    function createProduct(string memory _name, uint _price) public {\n        // Check for valid params\n        require(bytes(_name).length > 0);\n        require(_price > 0);\n\n        // Update id\n        id ++;\n\n        // Create a product\n        products[id] = Product(id, _name, _price, msg.sender, false);\n\n        // Trigger an event (Similar to return)\n        emit ProductCreated(id, _name, _price, msg.sender, false);\n    }\n\n    function purchaseProduct(uint _id) public payable {\n        // Fetch product and owner\n        Product memory _product = products[_id];\n        address _owner = _product.owner;\n\n        // Check for valid params\n        require(_id > 0);\n\n        // Transfer the ownership\n        _product.owner = msg.sender;\n        _product.purchased = true;\n\n        // Update the actual product in blockchain\n        products[_id] = _product;\n\n        // Pay the owner\n        payable(_owner).transfer(msg.value);\n\n        // Trigger an event\n        emit ProductPurchased(id, _product.name, _product.price, msg.sender, true);\n    }\n}\n\n\n\n/*\nExtra Notes:\n    1) Why id?\n    Solidity doesn't tell us how many products are in Struct. It returns empty vals if you've 5 prods and search for 6. \n\n    2) What is public variable?\n    Using public converts vaiable into function which can be used globally including console. More like auto increment PK.\n\n    3) Why to trigger event?\n    In Laravel, we return some value in the function. In solidity, we can trigger an event which will be passed as an argument in the callback of this function.\n\n    4) What is msg.sender?\n    It's the address of the person who calls the function.\n\n    5) What is require() in a function?\n    The function will throw an exception and will stop the execution if the condition is not correct in order to save gas fee.\n\n    6) Why _ on parameters?\n    _ is just for naming convention to differentiate local variables from state variables. \n\n    7) What is Product memory _product?\n    Creates a duplicate copy of the product that exists in the blockchain and assigns it to the local variable _product. \n\n    8) What is payable?\n    Solidity can't let you transfer money or use metadata(msg) value without payable function. The variable which contains owner address also must have payable.\n*/\n\n",
  "sourcePath": "/Users/jayz/Documents/Projects/Platforms/Web Development/Portfolio/Marketplace (React + Solidity + Truffle + Ganache)/marketplace/src/contracts/Marketplace.sol",
  "compiler": {
    "name": "solc",
    "version": "0.8.11+commit.d7f03943.Emscripten.clang"
  },
  "schemaVersion": "3.4.4",
  "updatedAt": "2022-01-19T09:28:29.607Z",
  "networkType": "ethereum",
  "devdoc": {
    "kind": "dev",
    "methods": {},
    "version": 1
  },
  "userdoc": {
    "kind": "user",
    "methods": {},
    "version": 1
  }
}