{
  "contractName": "Marketplace",
  "abi": [
    {
      "inputs": [],
      "stateMutability": "nonpayable",
      "type": "constructor"
    },
    {
      "anonymous": false,
      "inputs": [
        {
          "indexed": false,
          "internalType": "uint256",
          "name": "id",
          "type": "uint256"
        },
        {
          "indexed": false,
          "internalType": "string",
          "name": "name",
          "type": "string"
        },
        {
          "indexed": false,
          "internalType": "uint256",
          "name": "price",
          "type": "uint256"
        },
        {
          "indexed": false,
          "internalType": "address",
          "name": "owner",
          "type": "address"
        },
        {
          "indexed": false,
          "internalType": "bool",
          "name": "purchased",
          "type": "bool"
        }
      ],
      "name": "ProductCreated",
      "type": "event"
    },
    {
      "anonymous": false,
      "inputs": [
        {
          "indexed": false,
          "internalType": "uint256",
          "name": "id",
          "type": "uint256"
        },
        {
          "indexed": false,
          "internalType": "string",
          "name": "name",
          "type": "string"
        },
        {
          "indexed": false,
          "internalType": "uint256",
          "name": "price",
          "type": "uint256"
        },
        {
          "indexed": false,
          "internalType": "address",
          "name": "owner",
          "type": "address"
        },
        {
          "indexed": false,
          "internalType": "bool",
          "name": "purchased",
          "type": "bool"
        }
      ],
      "name": "ProductPurchased",
      "type": "event"
    },
    {
      "inputs": [],
      "name": "counter",
      "outputs": [
        {
          "internalType": "uint256",
          "name": "",
          "type": "uint256"
        }
      ],
      "stateMutability": "view",
      "type": "function",
      "constant": true
    },
    {
      "inputs": [],
      "name": "name",
      "outputs": [
        {
          "internalType": "string",
          "name": "",
          "type": "string"
        }
      ],
      "stateMutability": "view",
      "type": "function",
      "constant": true
    },
    {
      "inputs": [
        {
          "internalType": "uint256",
          "name": "",
          "type": "uint256"
        }
      ],
      "name": "products",
      "outputs": [
        {
          "internalType": "uint256",
          "name": "id",
          "type": "uint256"
        },
        {
          "internalType": "string",
          "name": "name",
          "type": "string"
        },
        {
          "internalType": "uint256",
          "name": "price",
          "type": "uint256"
        },
        {
          "internalType": "address",
          "name": "owner",
          "type": "address"
        },
        {
          "internalType": "bool",
          "name": "purchased",
          "type": "bool"
        }
      ],
      "stateMutability": "view",
      "type": "function",
      "constant": true
    },
    {
      "inputs": [
        {
          "internalType": "string",
          "name": "_name",
          "type": "string"
        },
        {
          "internalType": "uint256",
          "name": "_price",
          "type": "uint256"
        }
      ],
      "name": "createProduct",
      "outputs": [],
      "stateMutability": "nonpayable",
      "type": "function"
    },
    {
      "inputs": [
        {
          "internalType": "uint256",
          "name": "_id",
          "type": "uint256"
        }
      ],
      "name": "purchaseProduct",
      "outputs": [],
      "stateMutability": "payable",
      "type": "function",
      "payable": true
    }
  ],
  "bytecode": "0x608060405260006001553480156200001657600080fd5b506040518060400160405280601481526020017f45786f7469717565204d61726b6574706c61636500000000000000000000000081525060009080519060200190620000649291906200006b565b5062000180565b82805462000079906200014a565b90600052602060002090601f0160209004810192826200009d5760008555620000e9565b82601f10620000b857805160ff1916838001178555620000e9565b82800160010185558215620000e9579182015b82811115620000e8578251825591602001919060010190620000cb565b5b509050620000f89190620000fc565b5090565b5b8082111562000117576000816000905550600101620000fd565b5090565b7f4e487b7100000000000000000000000000000000000000000000000000000000600052602260045260246000fd5b600060028204905060018216806200016357607f821691505b602082108114156200017a57620001796200011b565b5b50919050565b610cbe80620001906000396000f3fe60806040526004361061004a5760003560e01c806306fdde031461004f57806338e76a031461007a57806361bc221a146100965780637acc0b20146100c1578063e9300c6c14610102575b600080fd5b34801561005b57600080fd5b5061006461012b565b60405161007191906108a5565b60405180910390f35b610094600480360381019061008f9190610911565b6101b9565b005b3480156100a257600080fd5b506100ab61050d565b6040516100b8919061094d565b60405180910390f35b3480156100cd57600080fd5b506100e860048036038101906100e39190610911565b610513565b6040516100f99594939291906109c4565b60405180910390f35b34801561010e57600080fd5b5061012960048036038101906101249190610b53565b6105fe565b005b6000805461013890610bde565b80601f016020809104026020016040519081016040528092919081815260200182805461016490610bde565b80156101b15780601f10610186576101008083540402835291602001916101b1565b820191906000526020600020905b81548152906001019060200180831161019457829003601f168201915b505050505081565b6000600260008381526020019081526020016000206040518060a0016040529081600082015481526020016001820180546101f390610bde565b80601f016020809104026020016040519081016040528092919081815260200182805461021f90610bde565b801561026c5780601f106102415761010080835404028352916020019161026c565b820191906000526020600020905b81548152906001019060200180831161024f57829003601f168201915b50505050508152602001600282015481526020016003820160009054906101000a900473ffffffffffffffffffffffffffffffffffffffff1673ffffffffffffffffffffffffffffffffffffffff1673ffffffffffffffffffffffffffffffffffffffff1681526020016003820160149054906101000a900460ff1615151515815250509050600081606001519050600082600001511180156103155750600154826000015111155b61031e57600080fd5b816040015134101561032f57600080fd5b81608001511561033e57600080fd5b8073ffffffffffffffffffffffffffffffffffffffff163373ffffffffffffffffffffffffffffffffffffffff16141561037757600080fd5b33826060019073ffffffffffffffffffffffffffffffffffffffff16908173ffffffffffffffffffffffffffffffffffffffff16815250506001826080019015159081151581525050348260400181815250508160026000858152602001908152602001600020600082015181600001556020820151816001019080519060200190610404929190610769565b506040820151816002015560608201518160030160006101000a81548173ffffffffffffffffffffffffffffffffffffffff021916908373ffffffffffffffffffffffffffffffffffffffff16021790555060808201518160030160146101000a81548160ff0219169083151502179055509050508073ffffffffffffffffffffffffffffffffffffffff166108fc349081150290604051600060405180830381858888f193505050501580156104bf573d6000803e3d6000fd5b507f79558d0d7d4d900e2f15c4cc0a665f1acdbe415e44de900ecdd1e5bf12b56f4e83836020015184604001513360016040516105009594939291906109c4565b60405180910390a1505050565b60015481565b600260205280600052604060002060009150905080600001549080600101805461053c90610bde565b80601f016020809104026020016040519081016040528092919081815260200182805461056890610bde565b80156105b55780601f1061058a576101008083540402835291602001916105b5565b820191906000526020600020905b81548152906001019060200180831161059857829003601f168201915b5050505050908060020154908060030160009054906101000a900473ffffffffffffffffffffffffffffffffffffffff16908060030160149054906101000a900460ff16905085565b600082511161060c57600080fd5b6000811161061957600080fd5b6001600081548092919061062c90610c3f565b91905055506040518060a0016040528060015481526020018381526020018281526020013373ffffffffffffffffffffffffffffffffffffffff168152602001600015158152506002600060015481526020019081526020016000206000820151816000015560208201518160010190805190602001906106ae929190610769565b506040820151816002015560608201518160030160006101000a81548173ffffffffffffffffffffffffffffffffffffffff021916908373ffffffffffffffffffffffffffffffffffffffff16021790555060808201518160030160146101000a81548160ff0219169083151502179055509050507fbc59c0c8165864dcceb377dd07d8f431d4303f8e501cb0a0374a10cc68d71836600154838333600060405161075d9594939291906109c4565b60405180910390a15050565b82805461077590610bde565b90600052602060002090601f01602090048101928261079757600085556107de565b82601f106107b057805160ff19168380011785556107de565b828001600101855582156107de579182015b828111156107dd5782518255916020019190600101906107c2565b5b5090506107eb91906107ef565b5090565b5b808211156108085760008160009055506001016107f0565b5090565b600081519050919050565b600082825260208201905092915050565b60005b8381101561084657808201518184015260208101905061082b565b83811115610855576000848401525b50505050565b6000601f19601f8301169050919050565b60006108778261080c565b6108818185610817565b9350610891818560208601610828565b61089a8161085b565b840191505092915050565b600060208201905081810360008301526108bf818461086c565b905092915050565b6000604051905090565b600080fd5b600080fd5b6000819050919050565b6108ee816108db565b81146108f957600080fd5b50565b60008135905061090b816108e5565b92915050565b600060208284031215610927576109266108d1565b5b6000610935848285016108fc565b91505092915050565b610947816108db565b82525050565b6000602082019050610962600083018461093e565b92915050565b600073ffffffffffffffffffffffffffffffffffffffff82169050919050565b600061099382610968565b9050919050565b6109a381610988565b82525050565b60008115159050919050565b6109be816109a9565b82525050565b600060a0820190506109d9600083018861093e565b81810360208301526109eb818761086c565b90506109fa604083018661093e565b610a07606083018561099a565b610a1460808301846109b5565b9695505050505050565b600080fd5b600080fd5b7f4e487b7100000000000000000000000000000000000000000000000000000000600052604160045260246000fd5b610a608261085b565b810181811067ffffffffffffffff82111715610a7f57610a7e610a28565b5b80604052505050565b6000610a926108c7565b9050610a9e8282610a57565b919050565b600067ffffffffffffffff821115610abe57610abd610a28565b5b610ac78261085b565b9050602081019050919050565b82818337600083830152505050565b6000610af6610af184610aa3565b610a88565b905082815260208101848484011115610b1257610b11610a23565b5b610b1d848285610ad4565b509392505050565b600082601f830112610b3a57610b39610a1e565b5b8135610b4a848260208601610ae3565b91505092915050565b60008060408385031215610b6a57610b696108d1565b5b600083013567ffffffffffffffff811115610b8857610b876108d6565b5b610b9485828601610b25565b9250506020610ba5858286016108fc565b9150509250929050565b7f4e487b7100000000000000000000000000000000000000000000000000000000600052602260045260246000fd5b60006002820490506001821680610bf657607f821691505b60208210811415610c0a57610c09610baf565b5b50919050565b7f4e487b7100000000000000000000000000000000000000000000000000000000600052601160045260246000fd5b6000610c4a826108db565b91507fffffffffffffffffffffffffffffffffffffffffffffffffffffffffffffffff821415610c7d57610c7c610c10565b5b60018201905091905056fea2646970667358221220627982e1a85241bb203e406ee46a0592a9b1574aa410e73dc770c5afba0c736464736f6c634300080b0033",
  "immutableReferences": {},
  "source": "// SPDX-License-Identifier: MIT\npragma solidity ^0.8.0;\n\ncontract Marketplace {\n    // State variables\n    string public name;\n    uint public counter = 0; \n\n    // Equivalent to database\n    struct Product {\n        uint id;\n        string name;\n        uint price;\n        address owner;\n        bool purchased;\n    }\n\n    // Similar to declaring PK for adding data\n    mapping(uint => Product) public products;\n\n    // Emit event when a product is created\n    event ProductCreated(\n        uint id,\n        string name,\n        uint price,\n        address owner,\n        bool purchased\n    );\n\n    // Emit event when a product is purchased\n    event ProductPurchased(\n        uint id,\n        string name,\n        uint price,\n        address owner,\n        bool purchased\n    );\n\n    constructor() {\n        name = \"Exotique Marketplace\";\n    }\n\n    function createProduct(string memory _name, uint _price) public {\n        // Validation\n        require(bytes(_name).length > 0);\n        require(_price > 0);\n\n        // Update counter\n        counter ++;\n\n        // Create a product\n        products[counter] = Product(counter, _name, _price, msg.sender, false);\n\n        // Trigger an event (Similar to return)\n        emit ProductCreated(counter, _name, _price, msg.sender, false);\n    }\n\n    function purchaseProduct(uint _id) public payable {\n        // Fetch product and owner\n        Product memory _product = products[_id];\n        address _owner = _product.owner;\n\n        // Validation\n        require(_product.id > 0 && _product.id <= counter); // Id is valid\n        require(msg.value >= _product.price); // There is enough ETH in transation\n        require(!_product.purchased); // Product is not purchased already\n        require(msg.sender != _owner); // Buyer is not the owner\n\n        // Transfer ownership and update price\n        _product.owner = msg.sender;\n        _product.purchased = true;\n        _product.price = msg.value;\n\n        // Update the actual product in blockchain\n        products[_id] = _product;\n\n        // Pay the owner\n        payable(_owner).transfer(msg.value);\n\n        // Trigger an event\n        emit ProductPurchased(_id, _product.name, _product.price, msg.sender, true);\n    }\n}\n\n\n\n/*\nExtra Notes:\n    1) Why id?\n    Solidity doesn't tell us how many products are in Struct. It returns empty vals if you've 5 prods and search for 6. \n\n    2) What is public variable?\n    Using public converts vaiable into function which can be used globally including console. More like auto increment PK.\n\n    3) Why to trigger event?\n    In Laravel, we return some value in the function. In solidity, we can trigger an event which will be passed as an argument in the callback of this function.\n\n    4) What is msg.sender?\n    It's the address of the person who calls the function i.e the one who makes the purchase with his wallet. In this case, msg. values come from metadata (msg.sender = from: buyer). \n\n    5) What is require() in a function?\n    The function will throw an exception and will stop the execution if the condition is not correct in order to save gas fee.\n\n    6) Why _ on parameters?\n    _ is just for naming convention to differentiate local variables from state variables. \n\n    7) What is Product memory _product?\n    Creates a duplicate copy of the product that exists in the blockchain and assigns it to the local variable _product. \n\n    8) What is payable?\n    Solidity can't let you transfer money or use metadata(msg) value without payable function. The variable which contains owner address also must have payable.\n\n    9) What happens ofter transfering the value?\n    Check the Ganache network. The msg.sender/from: buyer (3rd account) will lose 1 eth and owner (2nd account) will gain one.   \n*/\n\n",
  "sourcePath": "/Users/jayz/Documents/Projects/Platforms/Web Development/Portfolio/Marketplace (React + Solidity + Truffle + Ganache)/marketplace/src/contracts/Marketplace.sol",
  "compiler": {
    "name": "solc",
    "version": "0.8.11+commit.d7f03943.Emscripten.clang"
  },
  "schemaVersion": "3.4.4",
  "updatedAt": "2022-01-21T12:15:16.061Z",
  "networkType": "ethereum",
  "devdoc": {
    "kind": "dev",
    "methods": {},
    "version": 1
  },
  "userdoc": {
    "kind": "user",
    "methods": {},
    "version": 1
  }
}