{
  "contractName": "Marketplace",
  "abi": [
    {
      "inputs": [],
      "stateMutability": "nonpayable",
      "type": "constructor"
    },
    {
      "anonymous": false,
      "inputs": [
        {
          "indexed": false,
          "internalType": "uint256",
          "name": "id",
          "type": "uint256"
        },
        {
          "indexed": false,
          "internalType": "string",
          "name": "name",
          "type": "string"
        },
        {
          "indexed": false,
          "internalType": "string",
          "name": "media",
          "type": "string"
        },
        {
          "indexed": false,
          "internalType": "address",
          "name": "owner",
          "type": "address"
        }
      ],
      "name": "CollectionCreated",
      "type": "event"
    },
    {
      "anonymous": false,
      "inputs": [
        {
          "indexed": false,
          "internalType": "uint256",
          "name": "id",
          "type": "uint256"
        },
        {
          "indexed": false,
          "internalType": "string",
          "name": "name",
          "type": "string"
        },
        {
          "indexed": false,
          "internalType": "string",
          "name": "media",
          "type": "string"
        },
        {
          "indexed": false,
          "internalType": "uint256",
          "name": "price",
          "type": "uint256"
        },
        {
          "indexed": false,
          "internalType": "address",
          "name": "owner",
          "type": "address"
        },
        {
          "indexed": false,
          "internalType": "bool",
          "name": "purchased",
          "type": "bool"
        },
        {
          "indexed": false,
          "internalType": "uint256",
          "name": "collection_id",
          "type": "uint256"
        }
      ],
      "name": "ProductCreated",
      "type": "event"
    },
    {
      "anonymous": false,
      "inputs": [
        {
          "indexed": false,
          "internalType": "uint256",
          "name": "id",
          "type": "uint256"
        },
        {
          "indexed": false,
          "internalType": "string",
          "name": "name",
          "type": "string"
        },
        {
          "indexed": false,
          "internalType": "string",
          "name": "media",
          "type": "string"
        },
        {
          "indexed": false,
          "internalType": "uint256",
          "name": "price",
          "type": "uint256"
        },
        {
          "indexed": false,
          "internalType": "address",
          "name": "owner",
          "type": "address"
        },
        {
          "indexed": false,
          "internalType": "bool",
          "name": "purchased",
          "type": "bool"
        },
        {
          "indexed": false,
          "internalType": "uint256",
          "name": "collection_id",
          "type": "uint256"
        }
      ],
      "name": "ProductPurchased",
      "type": "event"
    },
    {
      "inputs": [],
      "name": "collectionCount",
      "outputs": [
        {
          "internalType": "uint256",
          "name": "",
          "type": "uint256"
        }
      ],
      "stateMutability": "view",
      "type": "function",
      "constant": true
    },
    {
      "inputs": [
        {
          "internalType": "uint256",
          "name": "",
          "type": "uint256"
        }
      ],
      "name": "collections",
      "outputs": [
        {
          "internalType": "uint256",
          "name": "id",
          "type": "uint256"
        },
        {
          "internalType": "string",
          "name": "name",
          "type": "string"
        },
        {
          "internalType": "string",
          "name": "media",
          "type": "string"
        },
        {
          "internalType": "address",
          "name": "owner",
          "type": "address"
        }
      ],
      "stateMutability": "view",
      "type": "function",
      "constant": true
    },
    {
      "inputs": [],
      "name": "name",
      "outputs": [
        {
          "internalType": "string",
          "name": "",
          "type": "string"
        }
      ],
      "stateMutability": "view",
      "type": "function",
      "constant": true
    },
    {
      "inputs": [],
      "name": "productCount",
      "outputs": [
        {
          "internalType": "uint256",
          "name": "",
          "type": "uint256"
        }
      ],
      "stateMutability": "view",
      "type": "function",
      "constant": true
    },
    {
      "inputs": [
        {
          "internalType": "uint256",
          "name": "",
          "type": "uint256"
        }
      ],
      "name": "products",
      "outputs": [
        {
          "internalType": "uint256",
          "name": "id",
          "type": "uint256"
        },
        {
          "internalType": "string",
          "name": "name",
          "type": "string"
        },
        {
          "internalType": "string",
          "name": "media",
          "type": "string"
        },
        {
          "internalType": "uint256",
          "name": "price",
          "type": "uint256"
        },
        {
          "internalType": "address",
          "name": "owner",
          "type": "address"
        },
        {
          "internalType": "bool",
          "name": "purchased",
          "type": "bool"
        },
        {
          "internalType": "uint256",
          "name": "collection_id",
          "type": "uint256"
        }
      ],
      "stateMutability": "view",
      "type": "function",
      "constant": true
    },
    {
      "inputs": [
        {
          "internalType": "string",
          "name": "_name",
          "type": "string"
        },
        {
          "internalType": "string",
          "name": "_media",
          "type": "string"
        },
        {
          "internalType": "uint256",
          "name": "_price",
          "type": "uint256"
        },
        {
          "internalType": "uint256",
          "name": "_collection_id",
          "type": "uint256"
        }
      ],
      "name": "createProduct",
      "outputs": [],
      "stateMutability": "nonpayable",
      "type": "function"
    },
    {
      "inputs": [
        {
          "internalType": "uint256",
          "name": "_id",
          "type": "uint256"
        }
      ],
      "name": "purchaseProduct",
      "outputs": [],
      "stateMutability": "payable",
      "type": "function",
      "payable": true
    },
    {
      "inputs": [
        {
          "internalType": "string",
          "name": "_name",
          "type": "string"
        },
        {
          "internalType": "string",
          "name": "_media",
          "type": "string"
        }
      ],
      "name": "createCollection",
      "outputs": [],
      "stateMutability": "nonpayable",
      "type": "function"
    }
  ],
  "bytecode": "0x6080604052600060015560006002553480156200001b57600080fd5b506040518060400160405280601481526020017f45786f7469717565204d61726b6574706c616365000000000000000000000000815250600090805190602001906200006992919062000249565b50620000e66040518060400160405280600781526020017f44656661756c74000000000000000000000000000000000000000000000000008152506040518060400160405280601f81526020017f2e2e2f6173736574732f426f7265644170655961746368436c75622e706e6700815250620000ec60201b60201c565b6200053a565b6000825111620000fb57600080fd5b60008151116200010a57600080fd5b600260008154809291906200011f9062000332565b9190505550604051806080016040528060025481526020018381526020018281526020013373ffffffffffffffffffffffffffffffffffffffff168152506004600060025481526020019081526020016000206000820151816000015560208201518160010190805190602001906200019a92919062000249565b506040820151816002019080519060200190620001b992919062000249565b5060608201518160030160006101000a81548173ffffffffffffffffffffffffffffffffffffffff021916908373ffffffffffffffffffffffffffffffffffffffff1602179055509050507f4c3e0b39635573f57a29aab3621210950392a4f2a518980a5b883c37cf35dbbe6002548383336040516200023d94939291906200047a565b60405180910390a15050565b828054620002579062000504565b90600052602060002090601f0160209004810192826200027b5760008555620002c7565b82601f106200029657805160ff1916838001178555620002c7565b82800160010185558215620002c7579182015b82811115620002c6578251825591602001919060010190620002a9565b5b509050620002d69190620002da565b5090565b5b80821115620002f5576000816000905550600101620002db565b5090565b7f4e487b7100000000000000000000000000000000000000000000000000000000600052601160045260246000fd5b6000819050919050565b60006200033f8262000328565b91507fffffffffffffffffffffffffffffffffffffffffffffffffffffffffffffffff821415620003755762000374620002f9565b5b600182019050919050565b6200038b8162000328565b82525050565b600081519050919050565b600082825260208201905092915050565b60005b83811015620003cd578082015181840152602081019050620003b0565b83811115620003dd576000848401525b50505050565b6000601f19601f8301169050919050565b6000620004018262000391565b6200040d81856200039c565b93506200041f818560208601620003ad565b6200042a81620003e3565b840191505092915050565b600073ffffffffffffffffffffffffffffffffffffffff82169050919050565b6000620004628262000435565b9050919050565b620004748162000455565b82525050565b600060808201905062000491600083018762000380565b8181036020830152620004a58186620003f4565b90508181036040830152620004bb8185620003f4565b9050620004cc606083018462000469565b95945050505050565b7f4e487b7100000000000000000000000000000000000000000000000000000000600052602260045260246000fd5b600060028204905060018216806200051d57607f821691505b60208210811415620005345762000533620004d5565b5b50919050565b611319806200054a6000396000f3fe60806040526004361061007b5760003560e01c806390d16cba1161004e57806390d16cba14610133578063d57f966b1461015c578063e0f6ef8714610187578063fdbda0ec146101b25761007b565b806306fdde0314610080578063176b9b75146100ab57806338e76a03146100d45780637acc0b20146100f0575b600080fd5b34801561008c57600080fd5b506100956101f2565b6040516100a29190610dcf565b60405180910390f35b3480156100b757600080fd5b506100d260048036038101906100cd9190610f3a565b610280565b005b6100ee60048036038101906100e99190610fe8565b6103d3565b005b3480156100fc57600080fd5b5061011760048036038101906101129190610fe8565b6107f6565b60405161012a9796959493929190611080565b60405180910390f35b34801561013f57600080fd5b5061015a600480360381019061015591906110fd565b610975565b005b34801561016857600080fd5b50610171610b27565b60405161017e919061119c565b60405180910390f35b34801561019357600080fd5b5061019c610b2d565b6040516101a9919061119c565b60405180910390f35b3480156101be57600080fd5b506101d960048036038101906101d49190610fe8565b610b33565b6040516101e994939291906111b7565b60405180910390f35b600080546101ff90611239565b80601f016020809104026020016040519081016040528092919081815260200182805461022b90611239565b80156102785780601f1061024d57610100808354040283529160200191610278565b820191906000526020600020905b81548152906001019060200180831161025b57829003601f168201915b505050505081565b600082511161028e57600080fd5b600081511161029c57600080fd5b600260008154809291906102af9061129a565b9190505550604051806080016040528060025481526020018381526020018281526020013373ffffffffffffffffffffffffffffffffffffffff16815250600460006002548152602001908152602001600020600082015181600001556020820151816001019080519060200190610328929190610c93565b506040820151816002019080519060200190610345929190610c93565b5060608201518160030160006101000a81548173ffffffffffffffffffffffffffffffffffffffff021916908373ffffffffffffffffffffffffffffffffffffffff1602179055509050507f4c3e0b39635573f57a29aab3621210950392a4f2a518980a5b883c37cf35dbbe6002548383336040516103c794939291906111b7565b60405180910390a15050565b6000600360008381526020019081526020016000206040518060e00160405290816000820154815260200160018201805461040d90611239565b80601f016020809104026020016040519081016040528092919081815260200182805461043990611239565b80156104865780601f1061045b57610100808354040283529160200191610486565b820191906000526020600020905b81548152906001019060200180831161046957829003601f168201915b5050505050815260200160028201805461049f90611239565b80601f01602080910402602001604051908101604052809291908181526020018280546104cb90611239565b80156105185780601f106104ed57610100808354040283529160200191610518565b820191906000526020600020905b8154815290600101906020018083116104fb57829003601f168201915b50505050508152602001600382015481526020016004820160009054906101000a900473ffffffffffffffffffffffffffffffffffffffff1673ffffffffffffffffffffffffffffffffffffffff1673ffffffffffffffffffffffffffffffffffffffff1681526020016004820160149054906101000a900460ff161515151581526020016005820154815250509050600081608001519050600082600001511180156105cb5750600154826000015111155b6105d457600080fd5b81606001513410156105e557600080fd5b8160a00151156105f457600080fd5b8073ffffffffffffffffffffffffffffffffffffffff163373ffffffffffffffffffffffffffffffffffffffff16141561062d57600080fd5b33826080019073ffffffffffffffffffffffffffffffffffffffff16908173ffffffffffffffffffffffffffffffffffffffff168152505060018260a00190151590811515815250503482606001818152505081600360008581526020019081526020016000206000820151816000015560208201518160010190805190602001906106ba929190610c93565b5060408201518160020190805190602001906106d7929190610c93565b506060820151816003015560808201518160040160006101000a81548173ffffffffffffffffffffffffffffffffffffffff021916908373ffffffffffffffffffffffffffffffffffffffff16021790555060a08201518160040160146101000a81548160ff02191690831515021790555060c082015181600501559050508073ffffffffffffffffffffffffffffffffffffffff166108fc349081150290604051600060405180830381858888f1935050505015801561079c573d6000803e3d6000fd5b507ff5e4eef3a7f0889457a6c3d3a20204beb681ac011dea6db869ed462105ea6305838360200151846040015185606001513360018860c001516040516107e99796959493929190611080565b60405180910390a1505050565b600360205280600052604060002060009150905080600001549080600101805461081f90611239565b80601f016020809104026020016040519081016040528092919081815260200182805461084b90611239565b80156108985780601f1061086d57610100808354040283529160200191610898565b820191906000526020600020905b81548152906001019060200180831161087b57829003601f168201915b5050505050908060020180546108ad90611239565b80601f01602080910402602001604051908101604052809291908181526020018280546108d990611239565b80156109265780601f106108fb57610100808354040283529160200191610926565b820191906000526020600020905b81548152906001019060200180831161090957829003601f168201915b5050505050908060030154908060040160009054906101000a900473ffffffffffffffffffffffffffffffffffffffff16908060040160149054906101000a900460ff16908060050154905087565b600084511161098357600080fd5b600083511161099157600080fd5b6000821161099e57600080fd5b600160008154809291906109b19061129a565b91905055506040518060e0016040528060015481526020018581526020018481526020018381526020013373ffffffffffffffffffffffffffffffffffffffff16815260200160001515815260200182815250600360006001548152602001908152602001600020600082015181600001556020820151816001019080519060200190610a3f929190610c93565b506040820151816002019080519060200190610a5c929190610c93565b506060820151816003015560808201518160040160006101000a81548173ffffffffffffffffffffffffffffffffffffffff021916908373ffffffffffffffffffffffffffffffffffffffff16021790555060a08201518160040160146101000a81548160ff02191690831515021790555060c082015181600501559050507f29a448690241a81373a4cdd352eb8dfd71b7d35bad65fd852b369c661b06e84e60015485858533600087604051610b199796959493929190611080565b60405180910390a150505050565b60025481565b60015481565b6004602052806000526040600020600091509050806000015490806001018054610b5c90611239565b80601f0160208091040260200160405190810160405280929190818152602001828054610b8890611239565b8015610bd55780601f10610baa57610100808354040283529160200191610bd5565b820191906000526020600020905b815481529060010190602001808311610bb857829003601f168201915b505050505090806002018054610bea90611239565b80601f0160208091040260200160405190810160405280929190818152602001828054610c1690611239565b8015610c635780601f10610c3857610100808354040283529160200191610c63565b820191906000526020600020905b815481529060010190602001808311610c4657829003601f168201915b5050505050908060030160009054906101000a900473ffffffffffffffffffffffffffffffffffffffff16905084565b828054610c9f90611239565b90600052602060002090601f016020900481019282610cc15760008555610d08565b82601f10610cda57805160ff1916838001178555610d08565b82800160010185558215610d08579182015b82811115610d07578251825591602001919060010190610cec565b5b509050610d159190610d19565b5090565b5b80821115610d32576000816000905550600101610d1a565b5090565b600081519050919050565b600082825260208201905092915050565b60005b83811015610d70578082015181840152602081019050610d55565b83811115610d7f576000848401525b50505050565b6000601f19601f8301169050919050565b6000610da182610d36565b610dab8185610d41565b9350610dbb818560208601610d52565b610dc481610d85565b840191505092915050565b60006020820190508181036000830152610de98184610d96565b905092915050565b6000604051905090565b600080fd5b600080fd5b600080fd5b600080fd5b7f4e487b7100000000000000000000000000000000000000000000000000000000600052604160045260246000fd5b610e4782610d85565b810181811067ffffffffffffffff82111715610e6657610e65610e0f565b5b80604052505050565b6000610e79610df1565b9050610e858282610e3e565b919050565b600067ffffffffffffffff821115610ea557610ea4610e0f565b5b610eae82610d85565b9050602081019050919050565b82818337600083830152505050565b6000610edd610ed884610e8a565b610e6f565b905082815260208101848484011115610ef957610ef8610e0a565b5b610f04848285610ebb565b509392505050565b600082601f830112610f2157610f20610e05565b5b8135610f31848260208601610eca565b91505092915050565b60008060408385031215610f5157610f50610dfb565b5b600083013567ffffffffffffffff811115610f6f57610f6e610e00565b5b610f7b85828601610f0c565b925050602083013567ffffffffffffffff811115610f9c57610f9b610e00565b5b610fa885828601610f0c565b9150509250929050565b6000819050919050565b610fc581610fb2565b8114610fd057600080fd5b50565b600081359050610fe281610fbc565b92915050565b600060208284031215610ffe57610ffd610dfb565b5b600061100c84828501610fd3565b91505092915050565b61101e81610fb2565b82525050565b600073ffffffffffffffffffffffffffffffffffffffff82169050919050565b600061104f82611024565b9050919050565b61105f81611044565b82525050565b60008115159050919050565b61107a81611065565b82525050565b600060e082019050611095600083018a611015565b81810360208301526110a78189610d96565b905081810360408301526110bb8188610d96565b90506110ca6060830187611015565b6110d76080830186611056565b6110e460a0830185611071565b6110f160c0830184611015565b98975050505050505050565b6000806000806080858703121561111757611116610dfb565b5b600085013567ffffffffffffffff81111561113557611134610e00565b5b61114187828801610f0c565b945050602085013567ffffffffffffffff81111561116257611161610e00565b5b61116e87828801610f0c565b935050604061117f87828801610fd3565b925050606061119087828801610fd3565b91505092959194509250565b60006020820190506111b16000830184611015565b92915050565b60006080820190506111cc6000830187611015565b81810360208301526111de8186610d96565b905081810360408301526111f28185610d96565b90506112016060830184611056565b95945050505050565b7f4e487b7100000000000000000000000000000000000000000000000000000000600052602260045260246000fd5b6000600282049050600182168061125157607f821691505b602082108114156112655761126461120a565b5b50919050565b7f4e487b7100000000000000000000000000000000000000000000000000000000600052601160045260246000fd5b60006112a582610fb2565b91507fffffffffffffffffffffffffffffffffffffffffffffffffffffffffffffffff8214156112d8576112d761126b565b5b60018201905091905056fea2646970667358221220ee0f890d74cee77d24101de63e9f7ae3d3f657e6a6ee88753318ab24f7ce4e5664736f6c634300080b0033",
  "immutableReferences": {},
  "source": "// SPDX-License-Identifier: MIT\npragma solidity ^0.8.0;\n\ncontract Marketplace {\n    // State variables\n    string public name;\n    uint public productCount = 0; \n    uint public collectionCount = 0; \n\n    // Equivalent to database\n    struct Product {\n        uint id;\n        string name;\n        string media;\n        uint price;\n        address owner;\n        bool purchased;\n        uint collection_id;\n    }\n\n    // Similar to declaring PK for adding data\n    mapping(uint => Product) public products;\n\n    // Emit event when a product is created\n    event ProductCreated(\n        uint id,\n        string name,\n        string media,\n        uint price,\n        address owner,\n        bool purchased,\n        uint collection_id\n    );\n\n    // Emit event when a product is purchased\n    event ProductPurchased(\n        uint id,\n        string name,\n        string media,\n        uint price,\n        address owner,\n        bool purchased,\n        uint collection_id\n    );\n\n    // Equivalent to database\n    struct Collection {\n        uint id;\n        string name;\n        string media;\n        address owner;\n    }\n\n    // Similar to declaring PK for adding data\n    mapping(uint => Collection) public collections;\n\n    // Emit event when a collection is created\n    event CollectionCreated(\n        uint id,\n        string name,\n        string media,\n        address owner\n    );\n\n    constructor() {\n        name = \"Exotique Marketplace\";\n\n        // Create a dafault collection\n        createCollection('Default', '../assets/BoredApeYatchClub.png'); \n    }\n\n    function createProduct(string memory _name, string memory _media, uint _price, uint _collection_id) public {\n        // Validation\n        require(bytes(_name).length > 0);\n        require(bytes(_media).length > 0);\n        require(_price > 0);\n\n        // Update counter\n        productCount ++;\n\n        // Create a product\n        products[productCount] = Product(productCount, _name, _media, _price, msg.sender, false, _collection_id);\n\n        // Trigger an event (Similar to return)\n        emit ProductCreated(productCount, _name, _media, _price, msg.sender, false, _collection_id);\n    }\n\n    function purchaseProduct(uint _id) public payable {\n        // Fetch product and owner\n        Product memory _product = products[_id];\n        address _owner = _product.owner;\n\n        // Validation\n        require(_product.id > 0 && _product.id <= productCount); // Id is valid\n        require(msg.value >= _product.price); // There is enough ETH in transation\n        require(!_product.purchased); // Product is not purchased already\n        require(msg.sender != _owner); // Buyer is not the owner\n\n        // Transfer ownership and update price\n        _product.owner = msg.sender;\n        _product.purchased = true;\n        _product.price = msg.value;\n\n        // Update the actual product in blockchain\n        products[_id] = _product;\n\n        // Pay the owner\n        payable(_owner).transfer(msg.value);\n\n        // Trigger an event\n        emit ProductPurchased(_id, _product.name, _product.media, _product.price, msg.sender, true, _product.collection_id);\n    }\n\n    function createCollection(string memory _name, string memory _media) public {\n        // Validation\n        require(bytes(_name).length > 0);\n        require(bytes(_media).length > 0);\n\n        // Update counter\n        collectionCount ++;\n\n        // Create a collection\n        collections[collectionCount] = Collection(collectionCount, _name, _media, msg.sender);\n\n        // Trigger an event (Similar to return)\n        emit CollectionCreated(collectionCount, _name, _media, msg.sender);\n    }\n}\n\n\n\n/*\nExtra Notes:\n    1) Why counter?\n    Solidity doesn't tell us how many products are in Struct. It returns empty vals if you've 5 prods and search for 6. \n\n    2) What is state/public variable?\n    Using public converts vaiable into function which can be used globally including console. More like auto increment PK.\n\n    3) Why to trigger event?\n    In Laravel, we return some value in the function. In solidity, we can trigger an event which will be passed as an argument in the callback of this function.\n\n    4) What is msg.sender?\n    It's the address of the person who calls the function i.e the one who makes the purchase with his wallet. In this case, msg. values come from metadata (msg.sender = from: buyer). \n\n    5) What is require() in a function?\n    The function will throw an exception and will stop the execution if the condition is not correct in order to save gas fee.\n\n    6) Why _ on parameters?\n    _ is just for naming convention to differentiate local variables from state variables. \n\n    7) What is Product memory _product?\n    Creates a duplicate copy of the product that exists in the blockchain and assigns it to the local variable _product. \n\n    8) What is payable?\n    Solidity can't let you transfer money or use metadata(msg) value without payable function. The variable which contains owner address also must have payable.\n\n    9) What happens ofter transfering the value?\n    Check the Ganache network. The msg.sender/from: buyer (3rd account) will lose 1 eth and owner (2nd account) will gain one.   \n*/\n\n",
  "sourcePath": "/Users/jayz/Documents/Projects/Platforms/Web Development/Portfolio/Marketplace (React + Solidity + Truffle + Ganache)/marketplace/src/contracts/Marketplace.sol",
  "compiler": {
    "name": "solc",
    "version": "0.8.11+commit.d7f03943.Emscripten.clang"
  },
  "schemaVersion": "3.4.4",
  "updatedAt": "2022-01-24T07:57:57.098Z",
  "networkType": "ethereum",
  "devdoc": {
    "kind": "dev",
    "methods": {},
    "version": 1
  },
  "userdoc": {
    "kind": "user",
    "methods": {},
    "version": 1
  }
}