{
  "contractName": "OpenSea",
  "abi": [
    {
      "inputs": [],
      "stateMutability": "nonpayable",
      "type": "constructor"
    },
    {
      "anonymous": false,
      "inputs": [
        {
          "indexed": false,
          "internalType": "uint256",
          "name": "id",
          "type": "uint256"
        },
        {
          "indexed": false,
          "internalType": "string",
          "name": "name",
          "type": "string"
        },
        {
          "indexed": false,
          "internalType": "string",
          "name": "mediaHash",
          "type": "string"
        },
        {
          "indexed": false,
          "internalType": "address",
          "name": "owner",
          "type": "address"
        }
      ],
      "name": "CollectionCreated",
      "type": "event"
    },
    {
      "anonymous": false,
      "inputs": [
        {
          "indexed": false,
          "internalType": "uint256",
          "name": "id",
          "type": "uint256"
        },
        {
          "indexed": false,
          "internalType": "string",
          "name": "name",
          "type": "string"
        },
        {
          "indexed": false,
          "internalType": "string",
          "name": "mediaHash",
          "type": "string"
        },
        {
          "indexed": false,
          "internalType": "uint256",
          "name": "price",
          "type": "uint256"
        },
        {
          "indexed": false,
          "internalType": "address",
          "name": "owner",
          "type": "address"
        },
        {
          "indexed": false,
          "internalType": "uint256",
          "name": "collection_id",
          "type": "uint256"
        }
      ],
      "name": "NFTMinted",
      "type": "event"
    },
    {
      "anonymous": false,
      "inputs": [
        {
          "indexed": false,
          "internalType": "uint256",
          "name": "id",
          "type": "uint256"
        },
        {
          "indexed": false,
          "internalType": "string",
          "name": "name",
          "type": "string"
        },
        {
          "indexed": false,
          "internalType": "string",
          "name": "mediaHash",
          "type": "string"
        },
        {
          "indexed": false,
          "internalType": "uint256",
          "name": "price",
          "type": "uint256"
        },
        {
          "indexed": false,
          "internalType": "address",
          "name": "owner",
          "type": "address"
        },
        {
          "indexed": false,
          "internalType": "uint256",
          "name": "collection_id",
          "type": "uint256"
        }
      ],
      "name": "NFTPurchased",
      "type": "event"
    },
    {
      "inputs": [],
      "name": "collectionCount",
      "outputs": [
        {
          "internalType": "uint256",
          "name": "",
          "type": "uint256"
        }
      ],
      "stateMutability": "view",
      "type": "function",
      "constant": true
    },
    {
      "inputs": [
        {
          "internalType": "uint256",
          "name": "",
          "type": "uint256"
        }
      ],
      "name": "collections",
      "outputs": [
        {
          "internalType": "uint256",
          "name": "id",
          "type": "uint256"
        },
        {
          "internalType": "string",
          "name": "name",
          "type": "string"
        },
        {
          "internalType": "string",
          "name": "mediaHash",
          "type": "string"
        },
        {
          "internalType": "address",
          "name": "owner",
          "type": "address"
        }
      ],
      "stateMutability": "view",
      "type": "function",
      "constant": true
    },
    {
      "inputs": [],
      "name": "name",
      "outputs": [
        {
          "internalType": "string",
          "name": "",
          "type": "string"
        }
      ],
      "stateMutability": "view",
      "type": "function",
      "constant": true
    },
    {
      "inputs": [],
      "name": "nftCount",
      "outputs": [
        {
          "internalType": "uint256",
          "name": "",
          "type": "uint256"
        }
      ],
      "stateMutability": "view",
      "type": "function",
      "constant": true
    },
    {
      "inputs": [
        {
          "internalType": "uint256",
          "name": "",
          "type": "uint256"
        }
      ],
      "name": "nfts",
      "outputs": [
        {
          "internalType": "uint256",
          "name": "id",
          "type": "uint256"
        },
        {
          "internalType": "string",
          "name": "name",
          "type": "string"
        },
        {
          "internalType": "string",
          "name": "mediaHash",
          "type": "string"
        },
        {
          "internalType": "uint256",
          "name": "price",
          "type": "uint256"
        },
        {
          "internalType": "address",
          "name": "owner",
          "type": "address"
        },
        {
          "internalType": "uint256",
          "name": "collection_id",
          "type": "uint256"
        }
      ],
      "stateMutability": "view",
      "type": "function",
      "constant": true
    },
    {
      "inputs": [
        {
          "internalType": "string",
          "name": "_name",
          "type": "string"
        },
        {
          "internalType": "string",
          "name": "_mediaHash",
          "type": "string"
        },
        {
          "internalType": "uint256",
          "name": "_price",
          "type": "uint256"
        },
        {
          "internalType": "uint256",
          "name": "_collection_id",
          "type": "uint256"
        }
      ],
      "name": "mintNFT",
      "outputs": [],
      "stateMutability": "nonpayable",
      "type": "function"
    },
    {
      "inputs": [
        {
          "internalType": "uint256",
          "name": "_id",
          "type": "uint256"
        }
      ],
      "name": "purchaseNFT",
      "outputs": [],
      "stateMutability": "payable",
      "type": "function",
      "payable": true
    },
    {
      "inputs": [
        {
          "internalType": "string",
          "name": "_name",
          "type": "string"
        },
        {
          "internalType": "string",
          "name": "_mediaHash",
          "type": "string"
        }
      ],
      "name": "createCollection",
      "outputs": [],
      "stateMutability": "nonpayable",
      "type": "function"
    }
  ],
  "bytecode": "0x6080604052600060015560006002553480156200001b57600080fd5b506040518060400160405280600781526020017f4f70656e53656100000000000000000000000000000000000000000000000000815250600090805190602001906200006992919062000214565b50620000c06040518060400160405280600781526020017f44656661756c740000000000000000000000000000000000000000000000000081525060405180602001604052806000815250620000c660201b60201c565b62000505565b6000825111620000d557600080fd5b60026000815480929190620000ea90620002fd565b9190505550604051806080016040528060025481526020018381526020018281526020013373ffffffffffffffffffffffffffffffffffffffff168152506004600060025481526020019081526020016000206000820151816000015560208201518160010190805190602001906200016592919062000214565b5060408201518160020190805190602001906200018492919062000214565b5060608201518160030160006101000a81548173ffffffffffffffffffffffffffffffffffffffff021916908373ffffffffffffffffffffffffffffffffffffffff1602179055509050507f4c3e0b39635573f57a29aab3621210950392a4f2a518980a5b883c37cf35dbbe60025483833360405162000208949392919062000445565b60405180910390a15050565b8280546200022290620004cf565b90600052602060002090601f01602090048101928262000246576000855562000292565b82601f106200026157805160ff191683800117855562000292565b8280016001018555821562000292579182015b828111156200029157825182559160200191906001019062000274565b5b509050620002a19190620002a5565b5090565b5b80821115620002c0576000816000905550600101620002a6565b5090565b7f4e487b7100000000000000000000000000000000000000000000000000000000600052601160045260246000fd5b6000819050919050565b60006200030a82620002f3565b91507fffffffffffffffffffffffffffffffffffffffffffffffffffffffffffffffff82141562000340576200033f620002c4565b5b600182019050919050565b6200035681620002f3565b82525050565b600081519050919050565b600082825260208201905092915050565b60005b83811015620003985780820151818401526020810190506200037b565b83811115620003a8576000848401525b50505050565b6000601f19601f8301169050919050565b6000620003cc826200035c565b620003d8818562000367565b9350620003ea81856020860162000378565b620003f581620003ae565b840191505092915050565b600073ffffffffffffffffffffffffffffffffffffffff82169050919050565b60006200042d8262000400565b9050919050565b6200043f8162000420565b82525050565b60006080820190506200045c60008301876200034b565b8181036020830152620004708186620003bf565b90508181036040830152620004868185620003bf565b905062000497606083018462000434565b95945050505050565b7f4e487b7100000000000000000000000000000000000000000000000000000000600052602260045260246000fd5b60006002820490506001821680620004e857607f821691505b60208210811415620004ff57620004fe620004a0565b5b50919050565b61124480620005156000396000f3fe60806040526004361061007b5760003560e01c8063265aa6211161004e578063265aa6211461011b57806338318f371461015d578063d57f966b14610186578063fdbda0ec146101b15761007b565b806306fdde03146100805780630af2c6ca146100ab578063150bde03146100d6578063176b9b75146100f2575b600080fd5b34801561008c57600080fd5b506100956101f1565b6040516100a29190610d23565b60405180910390f35b3480156100b757600080fd5b506100c061027f565b6040516100cd9190610d5e565b60405180910390f35b6100f060048036038101906100eb9190610db9565b610285565b005b3480156100fe57600080fd5b5061011960048036038101906101149190610f1b565b61064a565b005b34801561012757600080fd5b50610142600480360381019061013d9190610db9565b61078f565b60405161015496959493929190610fd4565b60405180910390f35b34801561016957600080fd5b50610184600480360381019061017f9190611043565b6108fb565b005b34801561019257600080fd5b5061019b610a81565b6040516101a89190610d5e565b60405180910390f35b3480156101bd57600080fd5b506101d860048036038101906101d39190610db9565b610a87565b6040516101e894939291906110e2565b60405180910390f35b600080546101fe90611164565b80601f016020809104026020016040519081016040528092919081815260200182805461022a90611164565b80156102775780601f1061024c57610100808354040283529160200191610277565b820191906000526020600020905b81548152906001019060200180831161025a57829003601f168201915b505050505081565b60015481565b6000600360008381526020019081526020016000206040518060c0016040529081600082015481526020016001820180546102bf90611164565b80601f01602080910402602001604051908101604052809291908181526020018280546102eb90611164565b80156103385780601f1061030d57610100808354040283529160200191610338565b820191906000526020600020905b81548152906001019060200180831161031b57829003601f168201915b5050505050815260200160028201805461035190611164565b80601f016020809104026020016040519081016040528092919081815260200182805461037d90611164565b80156103ca5780601f1061039f576101008083540402835291602001916103ca565b820191906000526020600020905b8154815290600101906020018083116103ad57829003601f168201915b50505050508152602001600382015481526020016004820160009054906101000a900473ffffffffffffffffffffffffffffffffffffffff1673ffffffffffffffffffffffffffffffffffffffff1673ffffffffffffffffffffffffffffffffffffffff1681526020016005820154815250509050600081608001519050600082600001511180156104625750600154826000015111155b61046b57600080fd5b816060015134101561047c57600080fd5b8073ffffffffffffffffffffffffffffffffffffffff163373ffffffffffffffffffffffffffffffffffffffff1614156104b557600080fd5b33826080019073ffffffffffffffffffffffffffffffffffffffff16908173ffffffffffffffffffffffffffffffffffffffff1681525050348260600181815250508160036000858152602001908152602001600020600082015181600001556020820151816001019080519060200190610531929190610be7565b50604082015181600201908051906020019061054e929190610be7565b506060820151816003015560808201518160040160006101000a81548173ffffffffffffffffffffffffffffffffffffffff021916908373ffffffffffffffffffffffffffffffffffffffff16021790555060a082015181600501559050508073ffffffffffffffffffffffffffffffffffffffff166108fc349081150290604051600060405180830381858888f193505050501580156105f3573d6000803e3d6000fd5b507f4750b89ef520be7e44a4041648757bd3aec7e650f9157063367787d059c2a2c883836020015184604001518560600151338760a0015160405161063d96959493929190610fd4565b60405180910390a1505050565b600082511161065857600080fd5b6002600081548092919061066b906111c5565b9190505550604051806080016040528060025481526020018381526020018281526020013373ffffffffffffffffffffffffffffffffffffffff168152506004600060025481526020019081526020016000206000820151816000015560208201518160010190805190602001906106e4929190610be7565b506040820151816002019080519060200190610701929190610be7565b5060608201518160030160006101000a81548173ffffffffffffffffffffffffffffffffffffffff021916908373ffffffffffffffffffffffffffffffffffffffff1602179055509050507f4c3e0b39635573f57a29aab3621210950392a4f2a518980a5b883c37cf35dbbe60025483833360405161078394939291906110e2565b60405180910390a15050565b60036020528060005260406000206000915090508060000154908060010180546107b890611164565b80601f01602080910402602001604051908101604052809291908181526020018280546107e490611164565b80156108315780601f1061080657610100808354040283529160200191610831565b820191906000526020600020905b81548152906001019060200180831161081457829003601f168201915b50505050509080600201805461084690611164565b80601f016020809104026020016040519081016040528092919081815260200182805461087290611164565b80156108bf5780601f10610894576101008083540402835291602001916108bf565b820191906000526020600020905b8154815290600101906020018083116108a257829003601f168201915b5050505050908060030154908060040160009054906101000a900473ffffffffffffffffffffffffffffffffffffffff16908060050154905086565b600084511161090957600080fd5b600083511161091757600080fd5b6000821161092457600080fd5b60016000815480929190610937906111c5565b91905055506040518060c0016040528060015481526020018581526020018481526020018381526020013373ffffffffffffffffffffffffffffffffffffffff168152602001828152506003600060015481526020019081526020016000206000820151816000015560208201518160010190805190602001906109bc929190610be7565b5060408201518160020190805190602001906109d9929190610be7565b506060820151816003015560808201518160040160006101000a81548173ffffffffffffffffffffffffffffffffffffffff021916908373ffffffffffffffffffffffffffffffffffffffff16021790555060a082015181600501559050507f92fa3eed7dbd3eef10aafde23cab3679452a4d23ab598a342b07ab4b604fd2a86001548585853386604051610a7396959493929190610fd4565b60405180910390a150505050565b60025481565b6004602052806000526040600020600091509050806000015490806001018054610ab090611164565b80601f0160208091040260200160405190810160405280929190818152602001828054610adc90611164565b8015610b295780601f10610afe57610100808354040283529160200191610b29565b820191906000526020600020905b815481529060010190602001808311610b0c57829003601f168201915b505050505090806002018054610b3e90611164565b80601f0160208091040260200160405190810160405280929190818152602001828054610b6a90611164565b8015610bb75780601f10610b8c57610100808354040283529160200191610bb7565b820191906000526020600020905b815481529060010190602001808311610b9a57829003601f168201915b5050505050908060030160009054906101000a900473ffffffffffffffffffffffffffffffffffffffff16905084565b828054610bf390611164565b90600052602060002090601f016020900481019282610c155760008555610c5c565b82601f10610c2e57805160ff1916838001178555610c5c565b82800160010185558215610c5c579182015b82811115610c5b578251825591602001919060010190610c40565b5b509050610c699190610c6d565b5090565b5b80821115610c86576000816000905550600101610c6e565b5090565b600081519050919050565b600082825260208201905092915050565b60005b83811015610cc4578082015181840152602081019050610ca9565b83811115610cd3576000848401525b50505050565b6000601f19601f8301169050919050565b6000610cf582610c8a565b610cff8185610c95565b9350610d0f818560208601610ca6565b610d1881610cd9565b840191505092915050565b60006020820190508181036000830152610d3d8184610cea565b905092915050565b6000819050919050565b610d5881610d45565b82525050565b6000602082019050610d736000830184610d4f565b92915050565b6000604051905090565b600080fd5b600080fd5b610d9681610d45565b8114610da157600080fd5b50565b600081359050610db381610d8d565b92915050565b600060208284031215610dcf57610dce610d83565b5b6000610ddd84828501610da4565b91505092915050565b600080fd5b600080fd5b7f4e487b7100000000000000000000000000000000000000000000000000000000600052604160045260246000fd5b610e2882610cd9565b810181811067ffffffffffffffff82111715610e4757610e46610df0565b5b80604052505050565b6000610e5a610d79565b9050610e668282610e1f565b919050565b600067ffffffffffffffff821115610e8657610e85610df0565b5b610e8f82610cd9565b9050602081019050919050565b82818337600083830152505050565b6000610ebe610eb984610e6b565b610e50565b905082815260208101848484011115610eda57610ed9610deb565b5b610ee5848285610e9c565b509392505050565b600082601f830112610f0257610f01610de6565b5b8135610f12848260208601610eab565b91505092915050565b60008060408385031215610f3257610f31610d83565b5b600083013567ffffffffffffffff811115610f5057610f4f610d88565b5b610f5c85828601610eed565b925050602083013567ffffffffffffffff811115610f7d57610f7c610d88565b5b610f8985828601610eed565b9150509250929050565b600073ffffffffffffffffffffffffffffffffffffffff82169050919050565b6000610fbe82610f93565b9050919050565b610fce81610fb3565b82525050565b600060c082019050610fe96000830189610d4f565b8181036020830152610ffb8188610cea565b9050818103604083015261100f8187610cea565b905061101e6060830186610d4f565b61102b6080830185610fc5565b61103860a0830184610d4f565b979650505050505050565b6000806000806080858703121561105d5761105c610d83565b5b600085013567ffffffffffffffff81111561107b5761107a610d88565b5b61108787828801610eed565b945050602085013567ffffffffffffffff8111156110a8576110a7610d88565b5b6110b487828801610eed565b93505060406110c587828801610da4565b92505060606110d687828801610da4565b91505092959194509250565b60006080820190506110f76000830187610d4f565b81810360208301526111098186610cea565b9050818103604083015261111d8185610cea565b905061112c6060830184610fc5565b95945050505050565b7f4e487b7100000000000000000000000000000000000000000000000000000000600052602260045260246000fd5b6000600282049050600182168061117c57607f821691505b602082108114156111905761118f611135565b5b50919050565b7f4e487b7100000000000000000000000000000000000000000000000000000000600052601160045260246000fd5b60006111d082610d45565b91507fffffffffffffffffffffffffffffffffffffffffffffffffffffffffffffffff82141561120357611202611196565b5b60018201905091905056fea26469706673582212208b7125c7904fc2d6ba5c85592369d942517d2d983d1072592033282c018f189464736f6c634300080c0033",
  "immutableReferences": {},
  "source": "// SPDX-License-Identifier: MIT\npragma solidity ^0.8.0;\n\ncontract OpenSea {\n    // State variables\n    string public name;\n    uint public nftCount = 0; \n    uint public collectionCount = 0; \n\n    // Equivalent to database\n    struct NFT {\n        uint id;\n        string name;\n        string mediaHash;\n        uint price;\n        address owner;\n        uint collection_id;\n    }\n\n    // Similar to declaring PK for adding data\n    mapping(uint => NFT) public nfts;\n\n    // Emit event when a NFT is created\n    event NFTMinted(\n        uint id,\n        string name,\n        string mediaHash,\n        uint price,\n        address owner,\n        uint collection_id\n    );\n\n    // Emit event when a NFT is purchased\n    event NFTPurchased(\n        uint id,\n        string name,\n        string mediaHash,\n        uint price,\n        address owner,\n        uint collection_id\n    );\n\n    // Equivalent to database\n    struct Collection {\n        uint id;\n        string name;\n        string mediaHash;\n        address owner;\n    }\n\n    // Similar to declaring PK for adding data\n    mapping(uint => Collection) public collections;\n\n    // Emit event when a collection is created\n    event CollectionCreated(\n        uint id,\n        string name,\n        string mediaHash,\n        address owner\n    );\n\n    constructor() {\n        name = \"OpenSea\";\n\n        // Create a default collection\n        createCollection('Default', ''); \n    }\n\n    function mintNFT(string memory _name, string memory _mediaHash, uint _price, uint _collection_id) public {\n        // Validation\n        require(bytes(_name).length > 0);\n        require(bytes(_mediaHash).length > 0);\n        require(_price > 0);\n\n        // Update counter\n        nftCount ++;\n\n        // Create a NFT\n        nfts[nftCount] = NFT(nftCount, _name, _mediaHash, _price, msg.sender, _collection_id);\n\n        // Trigger an event (Similar to return)\n        emit NFTMinted(nftCount, _name, _mediaHash, _price, msg.sender, _collection_id);\n    }\n\n    function purchaseNFT(uint _id) public payable {\n        // Fetch NFT and owner\n        NFT memory _nft = nfts[_id];\n        address _owner = _nft.owner;\n\n        // Validation\n        require(_nft.id > 0 && _nft.id <= nftCount); // Id is valid\n        require(msg.value >= _nft.price); // There is enough ETH in transation\n        require(msg.sender != _owner); // Buyer is not the owner\n\n        // Transfer ownership and update price\n        _nft.owner = msg.sender;\n        _nft.price = msg.value;\n\n        // Update the actual NFT in blockchain\n        nfts[_id] = _nft;\n\n        // Pay the owner\n        payable(_owner).transfer(msg.value);\n\n        // Trigger an event\n        emit NFTPurchased(_id, _nft.name, _nft.mediaHash, _nft.price, msg.sender, _nft.collection_id);\n    }\n\n    function createCollection(string memory _name, string memory _mediaHash) public {\n        // Validation\n        require(bytes(_name).length > 0);\n\n        // Update counter\n        collectionCount ++;\n\n        // Create a collection\n        collections[collectionCount] = Collection(collectionCount, _name, _mediaHash, msg.sender);\n\n        // Trigger an event (Similar to return)\n        emit CollectionCreated(collectionCount, _name, _mediaHash, msg.sender);\n    }\n}\n\n\n\n/*\nExtra Notes:\n    1) Why counter?\n    Solidity doesn't tell us how many NFTs are in Struct. It returns empty vals if you've 5 prods and search for 6. \n\n    2) What is state/public variable?\n    Using public converts vaiable into function which can be used globally including console. More like auto increment PK.\n\n    3) Why to trigger event?\n    In Laravel, we return some value in the function. In solidity, we can trigger an event which will be passed as an argument in the callback of this function.\n\n    4) What is msg.sender?\n    It's the address of the person who calls the function i.e the one who makes the purchase with his wallet. In this case, msg. values come from metadata (msg.sender = from: buyer). \n\n    5) What is require() in a function?\n    The function will throw an exception and will stop the execution if the condition is not correct in order to save gas fee.\n\n    6) Why _ on parameters?\n    _ is just for naming convention to differentiate local variables from state variables. \n\n    7) What is NFT memory _nft?\n    Creates a duplicate copy of the NFT that exists in the blockchain and assigns it to the local variable _nft. \n\n    8) What is payable?\n    Solidity can't let you transfer money or use metadata(msg) value without payable function. The variable which contains owner address also must have payable.\n\n    9) What happens ofter transfering the value?\n    Check the Ganache network. The msg.sender/from: buyer (3rd account) will lose 1 eth and owner (2nd account) will gain one.   \n*/\n\n",
  "sourcePath": "/Users/jayz/Documents/Httpd/Projects/YouTube/OpenSea (React + Solidity + Truffle + Ganache)/openSea/src/contracts/OpenSea.sol",
  "compiler": {
    "name": "solc",
    "version": "0.8.12+commit.f00d7308.Emscripten.clang"
  },
  "schemaVersion": "3.4.4",
  "updatedAt": "2022-03-03T12:39:13.668Z",
  "networkType": "ethereum",
  "devdoc": {
    "kind": "dev",
    "methods": {},
    "version": 1
  },
  "userdoc": {
    "kind": "user",
    "methods": {},
    "version": 1
  }
}